S02000005072616B74696B756D5F355F54656D706C6174655F365F322E73726563F7
S113000050C200006FC200006DC200006BC200004D
S113001069C2000067C2000065C2000063C200003C
S113002061C200005FC200005DC200005BC200004C
S113003059C2000057C200000C94990D53C200002D
S113004051C200004FC200004DC200004BC200006C
S113005049C2000047C2000045C2000043C200007C
S113006041C200003FC200003DC200003BC200008C
S113007039C2000037C2000035C2000033C200009C
S113008031C200002FC200002DC200002BC20000AC
S113009029C2000027C2000025C200000C94750884
S11300A00C94A7080C94D9080C940B091BC20000EB
S11300B019C2000017C2000015C2000013C20000DC
S11300C011C200000FC200000DC200000BC20000EC
S11300D009C2000007C2000005C2000003C20000FC
S11300E001C20000FFC10000FDC10000FBC100000F
S11300F0F9C10000F7C10000F5C10000F3C1000020
S1130100F1C10000EFC10000EDC10000EBC100002F
S1130110E9C10000E7C10000E5C100001EC70000FE
S11301204EC700007EC70000AEC70000DBC1000060
S1130130D9C10000D7C10000D5C10000D3C100005F
S1130140D1C10000CFC10000CDC10000CBC100006F
S1130150C9C10000C7C10000C5C10000C3C100007F
S1130160C1C10000BFC10000BDC10000BBC100008F
S1130170B9C10000B7C10000B5C10000B3C100009F
S1130180B1C10000AFC10000ADC10000ABC10000AF
S1130190A9C10000A7C10000A5C10000A3C10000BF
S11301A0A1C100009FC100009DC100009BC10000CF
S11301B099C1000097C1000095C1000093C10000DF
S11301C091C100008FC100008DC100008BC10000EF
S11301D089C1000087C1000085C1000083C10000FF
S11301E081C100007FC100007DC100007BC100000F
S11301F079C1000077C1000075C100009C169C16EF
S11302009C16D216C216CF169C169C16D216C2166F
S1130210000000000000002020202020002050507A
S113022050000000005050F850F850502078A07052
S113023028F020C0C810204098186090A040A890D2
S11302406860204000000000102040404020104022
S1130250201010102040005020F8205000002020D2
S1130260F820200000000000602040000000F8009A
S113027000000000000000606000081020408000C2
S1130280708898A8C888702060202020207070880A
S113029008102040F8F81020100888701030509092
S11302A0F81010F880F008088870304080F08888D2
S11302B070F80810204040407088887088887070FA
S11302C088887808106000606000606000006060EA
S11302D000602040081020402010080000F800F8BA
S11302E000008040201020408070880810200020EA
S11302F070880868A8A87070888888F88888F0884A
S113030088F08888F070888080808870E090888881
S11303108890E0F88080F08080F8F88080E0808029
S11303208070888080988870888888F88888887029
S1130330202020202070381010101090608890A089
S1130340C0A09088808080808080F888D8A8888821
S113035088888888C8A898888870888888888870D9
S1130360F08888F080808070888888A89068F088F9
S113037088F0A09088788080700808F0F820202009
S11303802020208888888888887088888888885071
S113039020888888A8A8D888888850205088888889
S11303A0885020202020F80810204080F838202091
S11303B02020203800804020100800E02020202049
S11303C020E020508800000000000000000000F839
S11303D040201000000000000070087888788080B9
S11303E0B0C88888F0000070808088700808689819
S11303F088887800007088F88070304840E0404079
S113040040000078887808308080B0C888888820C8
S11304100060202020701000301010906040404890
S113042050605048602020202020700000D0A8A8F0
S113043088880000B0C88888880000708888887020
S11304400000F088F08080000068987808080000B8
S1130450B0C8808080000070807008F04040E040A8
S11304604048300000888888986800008888885050
S11304702000008888A8A8500000885020508800D8
S11304800088887808700000F8102040F8102020B8
S11304904020201020202020202020402020102038
S11304A0204011241FBECFEFCDBFDFE5DEBF00E04B
S11304B00CBF10E2A0E0B0E2E6E9F0E400E00BBF1C
S11304C002C007900D92A635B107D9F723E2A6E53D
S11304D0B0E201C01D92AA3BB207E1F70E942419C1
S11304E00C9449208DCD9FB7F89480915B2088238C
S11304F021F010925B209FBF08959FBF08959FB77E
S1130500F89480915A20882321F010925A209FBF9A
S113051008959FBF0895CF93DF93C0915820D09141
S11305205920BE0180E090E00E94271BC53AD140CB
S113053080F021E836E242E45DEB0E94B51B23E340
S113054033E345E552E40E942A1A0E94F61A862FE4
S11305500FC02DE231E24FE95DEB0E94B51B23E3AE
S113056033E342E852E40E942A1A0E94F61A862FC4
S1130570DF91CF910895809156209091572008954E
S11305806150710981099109D9F70895BF92CF92F9
S1130590DF92EF92FF920F931F93CF93DF931F92FB
S11305A0CDB7DEB700E016E06894FF24F3F8F80155
S11305B0F68263E070E080E090E0E2DFF801F5822B
S11305C063E070E080E090E0DBDF0F2EFBE2BF2E03
S11305D0F02DB98280EA99E0F8D3C12CD12C7601B0
S11305E000E412E42FE030E043E0BE016F5F7F4F90
S11305F080EA99E019D400E616E0FF24F394F801A8
S1130600F682B982BE016F5F7F4F80EA99E026D4FB
S1130610F801F682E0EAF9E0818185FFFDCF80EA06
S11306208093A009E0EAF9E0818186FFFDCFE0EA4A
S1130630F9E080E481838081BE016F5F7F4F80EAAF
S113064099E022D48BE28983BE016F5F7F4F80EAF9
S113065099E004D481E080936606E0EAF9E08181C0
S113066085FFFDCF86EA8093A009E0EAF9E0818165
S113067086FFFDCFE0EAF9E080E481838081BE015A
S11306806F5F7F4F80EA99E0FFD38BE28983BE01DD
S11306906F5F7F4F80EA99E0E1D381E08093660643
S11306A0E0EAF9E0818185FFFDCF88EC8093A00921
S11306B0E0EAF9E0818186FFFDCFE0EAF9E080E439
S11306C081838081BE016F5F7F4F80EA99E0DCD334
S11306D08BE28983BE016F5F7F4F80EA99E0BED3CE
S11306E081E080936606E0EAF9E0818185FFFDCF31
S11306F082EA8093A009E0EAF9E0818186FFFDCFD8
S1130700E0EAF9E080E481838081BE016F5F7F4F7E
S113071080EA99E0B9D38BE28983BE016F5F7F4F92
S113072080EA99E09BD381E080936606E0EAF9E0F1
S1130730818185FFFDCF8FE28093A009E0EAF9E093
S1130740818186FFFDCFE0EAF9E080E48183808146
S1130750BE016F5F7F4F80EA99E096D38BE2898375
S1130760BE016F5F7F4F80EA99E078D381E0809388
S11307706606E0EAF9E0818185FFFDCF88EF80938A
S1130780A009E0EAF9E0818186FFFDCFE0EAF9E023
S113079080E481838081BE016F5F7F4F80EA99E0AE
S11307A073D38BE28983BE016F5F7F4F80EA99E048
S11307B055D381E080936606E0EAF9E0818185FF04
S11307C0FDCF1092A009E0EAF9E0818186FFFDCF18
S11307D0E0EAF9E080E481838081BE016F5F7F4FAE
S11307E080EA99E051D38BE28983BE016F5F7F4F2A
S11307F080EA99E033D381E080936606E0EAF9E089
S1130800818185FFFDCF81E28093A009E0EAF9E0D0
S1130810818186FFFDCFE0EAF9E080E48183808175
S1130820BE016F5F7F4F80EA99E02ED38BE289830C
S1130830BE016F5F7F4F80EA99E010D381E080931F
S11308406606E0EAF9E0818185FFFDCF81E88093C7
S1130850A009E0EAF9E0818186FFFDCFE0EAF9E052
S113086080E481838081BE016F5F7F4F80EA99E0DD
S11308700BD38BE28983BE016F5F7F4F80EA99E0DF
S1130880EDD281E080936606E0EAF9E0818185FF9C
S1130890FDCF81E28093A009E0EAF9E0818186FF3F
S11308A0FDCFE0EAF9E080E481838081BE016F5FDF
S11308B07F4F80EA99E0E8D28BE28983BE016F5FC3
S11308C07F4F80EA99E0CAD281E080936606E0EA2D
S11308D0F9E0818185FFFDCF8FEA8093A009E0EAEA
S11308E0F9E0818186FFFDCFE0EAF9E080E48183CD
S11308F08081BE016F5F7F4F80EA99E0C5D20F907F
S1130900DF91CF911F910F91FF90EF90DF90CF90E7
S1130910BF9008959FB7F894E82FF0E0E059FF4F97
S113092060958081682360839FBF08959FB7F89482
S1130930E82FF0E0E059FF4F8081682B60839FBF70
S11309400895FF920F931F93CF93DF931F92CDB718
S1130950DEB7082FF62E142F1AD10F70006B8BE21E
S11309608983BE016F5F7F4F80EA99E077D281E08F
S113097080936606E0EAF9E0918195FFFDCF00934C
S1130980A009E0EAF9E0818186FFFDCFE0EAF9E021
S113099080E481838081BE016F5F7F4F80EA99E0AC
S11309A073D20F2D0F7702950F7000618BE289834C
S11309B0BE016F5F7F4F80EA99E050D281E080935F
S11309C06606E0EAF9E0818185FFFDCF0093A00986
S11309D0E0EAF9E0818186FFFDCFE0EAF9E080E416
S11309E081838081BE016F5F7F4F80EA99E04CD2A2
S11309F00F2D0F708BE28983BE016F5F7F4F80EAFA
S1130A0099E02CD281E080936606E0EAF9E08181E6
S1130A1085FFFDCF0093A009E0EAF9E0818186FF1C
S1130A20FDCFE0EAF9E080E481838081BE016F5F5D
S1130A307F4F80EA99E028D28BE28983BE016F5F01
S1130A407F4F80EA99E00AD281E080936506E0EA6C
S1130A50F9E0818185FFFDCF1093A009E0EAF9E078
S1130A60818186FFFDCFE0EAF9E080E48183808123
S1130A7081E080936606BE016F5F7F4F80EA99E054
S1130A8003D20F90DF91CF911F910F91FF900895A2
S1130A900F931F93CF93DF931F92CDB7DEB78CE5EF
S1130AA090E270D073DD8BE28983BE016F5F7F4F6C
S1130AB080EA99E0D3D181E080936606E0EAF9E028
S1130AC0818185FFFDCF80E48093A009E0EAF9E00D
S1130AD0818186FFFDCFE0EAF9E080E481838081B3
S1130AE0BE016F5F7F4F80EA99E0CED100E00AC07B
S1130AF040E0612F802F25DF1F5F1038C9F70F5F9B
S1130B00043011F010E0F4CF0F90DF91CF911F91DA
S1130B100F910895FF920F931F93CF93DF93882330
S1130B204CF1603238F5D42FC82FF62EF694F69493
S1130B30F69470E088E0F89E60197109112481E050
S1130B4090E08C0102C0000F111F6A95E2F76C2F30
S1130B508F2D2BD0D13021F028F0D23031F006C0C7
S1130B60802B04C00095802301C08027482F6C2F60
S1130B708F2DE7DEDF91CF911F910F91FF900895A4
S1130B8014C0089580935C2290935D22089520916F
S1130B905C2230915D2290E8899F200D311D112443
S1130BA0F901E60FF11D4083089520915C223091F4
S1130BB05D2290E8899F200D311D1124F901E60F73
S1130BC0F11D80810895FF920F931F93CF93DF93BC
S1130BD0E42FF0E0E80FF11DE138F1051CF0C0E866
S1130BE04C2F481B442309F44AC0D62FD695D695DA
S1130BF0D69570E098E0D99F601971091124E1E05D
S1130C00F0E0DF0102C0AA0FBB1F6A95E2F7FA2EDB
S1130C10213021F098F0223019F131C0C42F1FEF98
S1130C20180F012F0C0F602F8D2FAADF4F2D482B8B
S1130C30602F8D2F86DEC150A1F721C0C42F1FEF76
S1130C40180FFA2EF094012F0C0F602F8D2F98DFC0
S1130C504F2D4823602F8D2F74DEC150A1F70FC094
S1130C60C42F1FEF180F012F0C0F602F8D2F88DF5B
S1130C704F2D4827602F8D2F64DEC150A1F7DF91DF
S1130C80CF911F910F91FF900895FF920F931F939F
S1130C90CF93DF93222369F0F42E182FC22FDFEFB6
S1130CA0D60F6D2F6C0F202F4F2D812F8CDFC1504D
S1130CB0C1F7DF91CF911F910F91FF900895AF92EB
S1130CC0BF92CF92DF92EF92FF920F931F93CF9335
S1130CD0DF93C82FE62EB42E690100E0F9012481C8
S1130CE043816B2D8E2DD1DFF6018081811139C0B6
S1130CF08381282F269526952695877009F02F5FE6
S1130D00F601A4808C2F90E03581831B91092A9DE4
S1130D1090011124829FA001839F500D929F500D3A
S1130D20112401811281040F151FF601F380FF20A5
S1130D30A1F0D0E0C0E08E2D8C0F9C2F977021F491
S1130D40F801D4910F5F1F4FDD231CF441E06B2D9C
S1130D50E1DEDD0FCF5FFC12EECFB394AA94A110B5
S1130D60E4CFDF91CF911F910F91FF90EF90DF902F
S1130D70CF90BF90AF900895DF92EF92FF920F93C0
S1130D801F93CF93DF93D62E042F7901EC01162FF6
S1130D9089918A3031F4F70184818F5F080F1D2D0A
S1130DA009C08D3039F09701402F612F88DFF7019A
S1130DB08381180F88818111EBCFDF91CF911F912F
S1130DC00F91FF90EF90DF900895803A28E092070A
S1130DD021F460E183E09ECD0895803B28E09207F2
S1130DE021F460E283E096CD0895803A29E09207E9
S1130DF021F460E184E08ECD0895803B29E09207E0
S1130E0021F460E284E086CD0895803A2AE09207D6
S1130E1021F460E185E07ECD0895803A9B4019F489
S1130E2060E186E077CD08950F931F93CF93DF930E
S1130E3000D000D0CDB7DEB709831A832B833C835F
S1130E404D831E82BE016F5F7F4F38D32696CDBF80
S1130E50DEBFDF91CF911F910F910895FB01808137
S1130E60E82FE695E695E69540E2E49FF00111242B
S1130E70FA5F877021E030E0A90102C0440F551FDA
S1130E808A95E2F746830895FB018081E82FE69571
S1130E90E695E69540E2E49FF0011124FA5F87703D
S1130EA021E030E0A90102C0440F551F8A95E2F702
S1130EB045830895811522E0920761F480915F22B1
S1130EC091E0980F90935F22811112C062E081E05B
S1130ED021CD08958034924059F480915E2291E0AE
S1130EE0980F90935E22811103C062E082E012CDDC
S1130EF00895811522E0920759F480915F22815070
S1130F0080935F22811111C062E081E00FCD0895CA
S1130F108034924051F480915E22815080935E220D
S1130F20811103C062E082E001CD08951F93CF9345
S1130F30DF93EC011FB7F894BDDF8881816088835B
S1130F401FBF9FB7F894ECEAF3E281818F5F81833E
S1130F509FBFDF91CF911F9108951F920F920FB6FB
S1130F600F9211240BB60F922F933F934F935F93DD
S1130F706F937F938F939F93AF93BF93EF93FF935D
S1130F804091240250912502E091B423F091B523BD
S1130F9061E080E092E01995FF91EF91BF91AF91EC
S1130FA09F918F917F916F915F914F913F912F917D
S1130FB00F900BBE0F900FBE0F901F9018951F92AD
S1130FC00F920FB60F9211240BB60F922F933F93EB
S1130FD04F935F936F937F938F939F93AF93BF933D
S1130FE0EF93FF9340912C0250912D02E091B42392
S1130FF0F091B52362E080E092E01995FF91EF91C2
S1131000BF91AF919F918F917F916F915F914F911C
S11310103F912F910F900BBE0F900FBE0F901F901A
S113102018951F920F920FB60F9211240BB60F92C0
S11310302F933F934F935F936F937F938F939F93DC
S1131040AF93BF93EF93FF934091340250913502D5
S1131050E091B423F091B52364E080E092E0199527
S1131060FF91EF91BF91AF919F918F917F916F917C
S11310705F914F913F912F910F900BBE0F900FBE38
S11310800F901F9018951F920F920FB60F92112474
S11310900BB60F922F933F934F935F936F937F936E
S11310A08F939F93AF93BF93EF93FF9340913C0231
S11310B050913D02E091B423F091B52368E080E0C3
S11310C092E01995FF91EF91BF91AF919F918F910C
S11310D07F916F915F914F913F912F910F900BBE34
S11310E00F900FBE0F901F9018951F920F920FB67E
S11310F00F9211240BB60F922F933F934F935F934C
S11311006F937F938F939F93AF93BF93EF93FF93CB
S11311104091640250916502E091B223F091B323AF
S113112061E080E492E01995FF91EF91BF91AF9156
S11311309F918F917F916F915F914F913F912F91EB
S11311400F900BBE0F900FBE0F901F9018951F921B
S11311500F920FB60F9211240BB60F922F933F9359
S11311604F935F936F937F938F939F93AF93BF93AB
S1131170EF93FF9340916C0250916D02E091B22382
S1131180F091B32362E080E492E01995FF91EF912E
S1131190BF91AF919F918F917F916F915F914F918B
S11311A03F912F910F900BBE0F900FBE0F901F9089
S11311B018951F920F920FB60F9211240BB60F922F
S11311C02F933F934F935F936F937F938F939F934B
S11311D0AF93BF93EF93FF934091740250917502C4
S11311E0E091B223F091B32364E080E492E0199596
S11311F0FF91EF91BF91AF919F918F917F916F91EB
S11312005F914F913F912F910F900BBE0F900FBEA6
S11312100F901F9018951F920F920FB60F921124E2
S11312200BB60F922F933F934F935F936F937F93DC
S11312308F939F93AF93BF93EF93FF9340917C025F
S113124050917D02E091B223F091B32368E080E4F1
S113125092E01995FF91EF91BF91AF919F918F917A
S11312607F916F915F914F913F912F910F900BBEA2
S11312700F900FBE0F901F901895DF92EF92FF9280
S11312800F931F93CF93DF93EC018B01811522E021
S1131290920771F461E270E082E0D4D0E82EF12C80
S11312A060E270E082E0CED0FE2CEE24E82A10C08A
S11312B08034924051F565E270E082E0C3D0E82EBC
S11312C0F12C64E270E082E0BDD0FE2CEE24E82A2A
S11312D0DFB6F894CE01EEDD888192E09883EC8647
S11312E0FD86F80125813681288F398F92819A8372
S11312F094819C8393819B83918199838170908154
S1131300892B8883CE01F5DDDFBEDF91CF911F915C
S11313100F91FF90EF90DF900895FF920F931F932A
S1131320CF93DF93EC018B01FFB6F894C3DD888182
S1131330807CF8018083888D998D858396838A814A
S113134082838C8184838B81838389818183CE0191
S1131350D0DDFFBEDF91CF911F910F91FF900895D3
S1131360CF92DF92EF92FF920F931F93CF93DF936D
S11313707C01D62E8A01862F837029F4962F9695A8
S1131380969582E002C0962F80E090FF8F5FE70180
S1131390A09698E0899FC00DD11D1124CFB6F89472
S11313A0C70188DDF8018081888382818A838181F5
S11313B08983D0FE02C083818E83C7019ADDCFBEAC
S11313C0DF91CF911F910F91FF90EF90DF90CF901D
S11313D00895CF92DF92EF92FF920F931F93CF93D2
S11313E0DF937C01D62E8A01862F837029F4962FF1
S11313F09695969582E002C0962F80E090FF8F5FCD
S1131400E701A09698E0899FC00DD11D1124CFB6A5
S1131410F894C7014FDD8881F80180838A81828333
S113142089818183D0FE02C08E818383C70161DDFF
S1131430CFBEDF91CF911F910F91FF90EF90DF907E
S1131440CF9008954091CA01E62FF72F8093CA01E7
S113145084914093CA010895CF92DF92EF92FF9254
S11314600F931F93CF93DF93EC01D901C801B69575
S1131470A79597958795481759076A077B0778F4C6
S11314806A017B01CC0CDD1CEE1CFF1CC901B801F8
S1131490A70196010E94181C2150310902C020E0C6
S11314A030E0832F8F708F832E83DF91CF911F9134
S11314B00F91FF90EF90DF90CF900895EF92FF92FD
S11314C00F931F93CF93DF93EC017B01009709F4F3
S11314D07BC1803C910521F460E180E01BDA74C19A
S11314E08038914021F462E080E014DA6DC1C115C6
S11314F081E0D80721F461E080E00CDA65C1C038EE
S1131500E3E0DE0721F461E081E004DA5DC1C03983
S1131510F3E0DF0721F461E082E0FCD955C1C11595
S113152032E0D30721F462E081E0F4D94DC1C03444
S113153082E0D80721F462E082E0ECD945C1C032F0
S1131540E3E0DE0721F464E082E0E4D93DC1C115A3
S1131550F8E0DF0721F461E083E0DCD935C1C1158F
S113156039E0D30721F461E084E0D4D92DC1C11559
S11315708AE0D80721F461E085E0CCD925C1C11502
S1131580EBE0DE0721F461E086E0C4D91DC1C0347C
S1131590F8E0DF0721F462E083E0BCD915C1C03470
S11315A039E0D30721F462E084E0B4D90DC1C0343A
S11315B08AE0D80721F462E085E0ACD905C1C039DE
S11315C0E8E0DE0721F464E083E0A4D9FDC0C0397B
S11315D0F9E0DF0721F464E084E09CD9F5C0C03968
S11315E03AE0D30721F464E085E094D9EDC0C03932
S11315F08BE0D80721F464E086E08CD9E5C0C03CD8
S1131600E8E0DE0721F468E083E084D9DDC0C03C73
S1131610F9E0DF0721F468E084E07CD9D5C0C03A62
S113162038E0D30761F460E183E074D9E0EAF8E0DC
S113163084818F7E8483F7012481225043C0C03A81
S1131640F9E0DF0721F460E184E064D9BDC0C03A69
S11316503AE0D30721F460E185E05CD9B5C0C03A33
S11316608BE0D80721F460E186E054D9ADC0C03BDB
S1131670E8E0DE0721F460E283E04CD9A5C0C03B7A
S1131680F9E0DF0721F460E284E044D99DC0C0386A
S113169034E0D30721F460E483E03CD995C0C03A38
S11316A084E0D80721F460E485E034D98DC08C81CE
S11316B08F7E8C83FB0124812250CE01C03AF8E056
S11316C0DF0731F480914E0684FD86C011E185C0A8
S11316D0803B38E0930779F0803AE9E09E0731F4E3
S11316E030916E0634FD7CC019E110C0803BF9E0F6
S11316F09F07A9F001C015E1803A3AE0930731F45D
S113170080918E0684FD6EC011E20CC0803A9B402D
S113171049F48091AE0684FD04C019E203C01DE1C2
S113172001C01DE2E12FE695E695E69530E2E39FE0
S1131730F0011124FA5F177081E090E0012E02C0DD
S1131740880F991F0A94E2F78183223010F040E059
S113175001C040E4DF015096A10FB11D3FB7F894DA
S11317602C9127702C939C91942B9C933FBF858341
S11317708D81806C8D83F70184818D7F813021F48C
S11317808D8182608D8303C08D818D7F8D83F70170
S11317908581882321F08D8184608D8303C08D81B0
S11317A08B7F8D83F701408151816281738100E8D1
S11317B014E82EE130E0CE014FDE8C8188608C830A
S11317C08C8180618C8310C08C818F7E8C83F70127
S11317D024812250CE017CCF15E180EA98E086CFA7
S11317E01DE194CF15E29ECFDF91CF911F910F9110
S11317F0FF90EF900895FC010396818392832FEF6D
S11318003FEF238334838583968387839087108275
S11318100895FC01108611860895CF93DF939C01EF
S1131820FB01DC011196CD91DC911297C283D38325
S11318308C819D81848395838C819D81DC011296AA
S11318406D937C9313976C837D8320873187F90193
S113185080818F5F8083DF91CF910895CF93DF9351
S1131860EB01488159814F3F2FEF520721F4FC01CE
S1131870A781B0850DC0DC01139601C0DF0112966B
S1131880ED91FC9113972081318142175307B0F7F2
S11318901296ED91FC911397EA83FB83C483D5835D
S11318A0AC83BD831296CD93DC9313978887998775
S11318B0FC0120812F5F2083DF91CF910895CF9386
S11318C0DF93FC01A085B185C281D3818481958198
S11318D08C839D83C481D581828193818A839B83F8
S11318E011968D919C911297E817F90731F4848130
S11318F0958111968D939C931297108611868C91E5
S113190081508C93DF91CF9108950F931F938B0196
S113191071E1FC017083319762E26083319723E3C4
S11319202083012E000C220B330B31970083319757
S113193010833197208331971082319720E82083D8
S113194031971082319722E02083319723E020835E
S1131950319724E02083319725E02083319726E0D6
S11319602083319727E02083319728E02083319723
S113197029E02083319720E12083319770833197C8
S113198022E12083319723E12083319724E12083CE
S1131990319725E12083319726E12083319727E190
S11319A02083319728E12083319729E120833197DF
S11319B020E22083319721E220833197608331979D
S11319C023E220833197408331975083319726E275
S11319D02083319727E22083319728E220833197AF
S11319E029E22083319720E32083319721E3208368
S11319F087971F910F910895F894E0E7F0E08381B1
S1131A008A7F8383E0E0F8E080E09AEF86A397A3DF
S1131A1091E09683A0EAB0E012968C9112978160CF
S1131A2012968C9390837894A091B822B091B922A5
S1131A300D900DBE0D900EBEFF91EF91DF91CF91F1
S1131A40BF91AF919F918F917F916F915F914F91D2
S1131A503F912F911F910F91FF90EF90DF90CF90C6
S1131A60BF90AF909F908F907F906F905F904F90BA
S1131A703F902F901F900F900FBE0F90089581E01C
S1131A8008950F920FB6F8940F921F9211242F927B
S1131A903F924F925F926F927F928F929F92AF92FA
S1131AA0BF92CF92DF92EF92FF920F931F932F93E7
S1131AB03F934F935F936F937F938F939F93AF93D2
S1131AC0BF93CF93DF93EF93FF93A091B822B0918C
S1131AD0B9220DB60D920EB60D920ED6A091B82273
S1131AE0B091B9220D900DBE0D900EBEFF91EF91F5
S1131AF0DF91CF91BF91AF919F918F917F916F9122
S1131B005F914F913F912F911F910F91FF90EF9013
S1131B10DF90CF90BF90AF909F908F907F906F9009
S1131B205F904F903F902F901F900F900FBE0F909B
S1131B3008950F920FB6F8940F921F9211242F92CA
S1131B403F924F925F926F927F928F929F92AF9249
S1131B50BF92CF92DF92EF92FF920F931F932F9336
S1131B603F934F935F936F937F938F939F93AF9321
S1131B70BF93CF93DF93EF93FF93A091B822B091DB
S1131B80B9220DB60D920EB60D924BD48111B4D577
S1131B90A091B822B091B9220D900DBE0D900EBE49
S1131BA0FF91EF91DF91CF91BF91AF919F918F9171
S1131BB07F916F915F914F913F912F911F910F9161
S1131BC0FF90EF90DF90CF90BF90AF909F908F9059
S1131BD07F906F905F904F903F902F901F900F9049
S1131BE00FBE0F901895CF93DF93EC010AD4CE016A
S1131BF00E94421CEC01E8D4CE01DF91CF910895FC
S1131C00CF93DF93009731F0EC01FBD3CE010E9418
S1131C10DA1CDAD4DF91CF9108951F93CF93DF9329
S1131C20EC01142F4C8D4423D9F1111116C050E04E
S1131C308C819D810E94631D2C8D8C819D81820FDE
S1131C40911D8C839D832A813B818217930740F1E8
S1131C50888199818C839D8323C050E08E819F81EC
S1131C600E94631D8C8D90E09195819591092E8140
S1131C703F81280F391F2E833F83488159812417C0
S1131C80350730F42A813B81820F931F8E839F8313
S1131C90123031F48A8D882319F08A8D81508A8F0D
S1131CA08A8D8F5F8A8F80E0DF91CF911F91089595
S1131CB0FC01448D4423A9F050E026813781240F90
S1131CC0351F26833783828193812817390720F0B3
S1131CD08081918186839783CB01668177810C947F
S1131CE0631D08950F931F93CF93DF93EC010FB6F9
S1131CF0F8940F928E8D1816ACF48989811105C061
S1131D0011C08989811104C00DC08E010F5E1F4F5F
S1131D10C80193D5811113D68E8D81508E8F8E8DEF
S1131D2018167CF38FEF8E8F0F900FBE0FB6F894BA
S1131D300F928D8D1816ACF48885811105C011C0E1
S1131D408885811104C00DC08E01085F1F4FC80132
S1131D5074D58111F4D58D8D81508D8F8D8D18168C
S1131D607CF38FEF8D8F0F900FBEDF91CF911F917A
S1131D700F910895CF93DF93EC010FB6F8940F926F
S1131D80488159812C8D30E07B8D729FC001739FF7
S1131D90900D1124FA01E80FF91FEA83FB831A8ED0
S1131DA04C835D83821B930B840F951F8E839F83CB
S1131DB08FEF8D8F8E8F61110AC08885882369F01B
S1131DC0CE0108963AD5813041F45BDE06C0CE01DF
S1131DD0089611DDCE0141960EDD0F900FBE81E015
S1131DE0DF91CF9108950F931F93CF93DF93082F23
S1131DF0162F6623A9F0869FC00111248096F3DE76
S1131E00EC01009721F412C0C883D98303C04F9614
S1131E10888399830B8F1C8F61E0CE01ABDF06C0F2
S1131E208FE190E0E0DEEC01892B71F7CE01DF91C8
S1131E30CF911F910F910895AF92BF92CF92DF92ED
S1131E40EF92FF920F931F93CF93DF93CDB7DEB73B
S1131E502597CDBFDEBF8C016B014C835D83A22E21
S1131E60B12C7C0188E0E80EF11C0FB6F8940F92B7
S1131E70F801928D838D981718F0F2E0AF1215C017
S1131E804A2DB601C801C9DEF8019189992339F0B8
S1131E90C8014196D2D4813021F4F3DD02C081110E
S1131EA0F0DD0F900FBE81E046C08C819D81892BAF
S1131EB021F40F900FBE80E03EC0B11005C0CE01EA
S1131EC0019601D5BB24B3940F900FBE9AD20FB6DE
S1131ED0F8940F92F801858D8F3F09F4158EF8015F
S1131EE0868D8F3F09F4168E0F900FBEBE016C5F76
S1131EF07F4FCE010196F2D4811119C00FB6F89428
S1131F000F92F801928D0F900FBE838D98130BC022
S1131F106C817D81C7015DD4C801E4DE55D3811194
S1131F20A4CFAFDDA2CFC801DDDE4ED39ECFC80162
S1131F30D9DE4AD380E02596CDBFDEBFDF91CF91B5
S1131F401F910F91FF90EF90DF90CF90BF90AF90D3
S1131F5008950F931F93CF93DF93FA01DC015A96F0
S1131F605C915A975B963C91531710F02230D9F448
S1131F70422F8F01EC0151DE8E8D8F3F79F48989D8
S1131F80882399F0CE01419658D4882381F0011515
S1131F90110579F081E0F80180830CC08E8D8F5F8C
S1131FA08E8F81E007C080E005C081E003C081E03E
S1131FB001C081E0DF91CF911F910F910895AF92FD
S1131FC0BF92CF92DF92EF92FF920F931F93CF9322
S1131FD0DF93CDB7DEB72597CDBFDEBF8C016B0194
S1131FE04C835D83A22EB12C7C0181E1E80EF11CAF
S1131FF00FB6F8940F92F801828D882321F1E680C0
S1132000F780B601C80154DEA1100EC0F801828D1C
S11320108150828F8085882391F0C80108960DD461
S1132020813069F42EDD0BC0F801E682F7828189E4
S1132030882329F0C801419600D4811122DD0F9034
S11320400FBE81E045C08C819D81892B21F40F90C6
S11320500FBE80E03DC0B11005C0CE01019633D45F
S1132060BB24B3940F900FBECCD10FB6F8940F924B
S1132070F801858D8F3F09F4158EF801868D8F3F09
S113208009F4168E0F900FBEBE016C5F7F4FCE0118
S1132090019624D4811118C00FB6F8940F92F80158
S11320A0828D0F900FBE81110BC06C817D81C701A1
S11320B090D3C80117DE88D281119ACFE2DC98CF81
S11320C0C80110DE81D294CFC8010CDE7DD280E03D
S11320D02596CDBFDEBFDF91CF911F910F91FF9069
S11320E0EF90DF90CF90BF90AF900895CF93DF93A0
S11320F0EC010FB6F8940F928D8D8F3F09F41D8E6D
S11321008E8D8F3F09F41E8E0F900FBE8A8D811124
S113211003C0CE01419677D3CE01E4DDDF91CF91A8
S11321200895CBE8D2E288818230F0F3AADCFBCFB9
S1132130CF93DF93EC01E091B822F091B92282832E
S113214093838091692290916A22C817D90760F419
S11321506091B8227091B922809175229091762273
S11321606E5F7F4F7BDB16C06091B8227091B922FD
S113217080917722909178226E5F7F4F6FDB809100
S1132180612290916222C817D90720F4C09361227A
S1132190D0936222DF91CF9108954F925F926F9214
S11321A07F928F929F92AF92BF92CF92DF92EF92E3
S11321B0FF920F931F93CF93DF934C01EB015A01CE
S11321C02901C114D10431F4CA010DDD6C01892B3C
S11321D009F4D2C086E290E006DD3C01009779F074
S11321E0FC01C78AD08EF1E0AF1AB108CA0CDB1C1F
S11321F08881F301818F8881811104C013C0C601D5
S1132200FFDCBAC0D3015A96FE0131969E01285FC5
S11322103F4FEF0181918D938881882319F02E1708
S11322203F07B9F7F30110A2102F053008F014E0AE
S1132230F301168BE3012296CE01EBDAC3010C966F
S1132240E8DAF3016086718685E090E0811B9109EC
S113225084879587628A738A11A212A213A214A298
S113226015A2A201B401C60150DBF301808391835E
S1132270E114F10419F0F701608271820FB6F89449
S11322800F9280916B228F5F80936B228091B82292
S11322909091B922892B91F56092B8227092B9225B
S11322A080916B228130C9F50F2EFBE8EF2EF2E20C
S11322B0FF2EF02D0F2EF8EBCF2EF2E2DF2EF02DB5
S11322C0C70199DAF9E0EF0EF11CEC14FD04C1F733
S11322D082E892E290DA89E792E28DDA8CE692E281
S11322E08ADA82E892E2809377229093782289E7CF
S11322F092E280937522909376220FC08091672298
S113230081110BC0E091B822F091B9228689081797
S113231020F06092B8227092B922809163228F5F7C
S113232080936322F301868990916822981710F4B0
S11323308093682290E09C01220F331F220F331FE9
S1132340220F331F820F931FBE0185579D4D65DAFF
S11323500F900FBE80916722882351F0E091B8223C
S1132360F091B9228689801728F48BDB81E005C0BF
S113237081E003C081E001C08FEFDF91CF911F9115
S11323800F91FF90EF90DF90CF90BF90AF909F9010
S11323908F907F906F905F904F900895AF92BF920F
S11323A0CF92DF92EF92FF920F93A12CB12CC12C0C
S11323B0D12CE12CF12C00E020E030E045E550E0A8
S11323C06DE070E281E990E1E8DE813091F420D3A0
S11323D0813079F4F8948FEF9FEF8093612290938A
S11323E0622281E0809367221092692210926A220D
S11323F003DB0F91FF90EF90DF90CF90BF90AF90F1
S11324000895809160228F5F8093602208950FB6B3
S1132410F8940F928091692290916A220F900FBED6
S11324200895DF92EF92FF920F931F93CF93DF9360
S1132430809160228111B3C08091692290916A22B7
S113244001968093692290936A22E0906922F09029
S11324506A22E114F10499F580917722909178220F
S1132460209175223091762220937722309378221E
S11324708093752290937622809164228F5F80935B
S11324806422E0917722F09178228081811107C043
S11324908FEF9FEF809361229093622210C0E091AE
S11324A07722F09178220580F681E02D0680F7816D
S11324B0E02D8281938180936122909362228091A6
S11324C0612290916222E816F90610F4D12C4FC0D3
S11324D0D12CE0917722F09178228081811107C07C
S11324E08FEF9FEF809361229093622240C0E0912E
S11324F07722F09178220580F681E02DC681D7817C
S11325008A819B81E816F90628F4809361229093CE
S113251062222DC08E010E5F1F4FC801D0D98C8955
S11325209D89892B19F0CE010C96C9D98E89909179
S11325306822981710F48093682290E09C01220F7F
S1132540331F220F331F220F331F820F931FB80133
S113255085579D4D62D9E091B822F091B9229E89A8
S11325608689981708F4B5CFDD24D394B2CFE091CF
S1132570B822F091B922868990E0FC01EE0FFF1F8A
S1132580EE0FFF1FEE0FFF1F8E0F9F1FFC01E5577D
S1132590FD4D8081823048F0DD24D39406C08091C3
S11325A066228F5F80936622D12C809165228823D6
S11325B011F0DD24D3948D2DDF91CF911F910F91D4
S11325C0FF90EF90DF900895DF92EF92FF920F93C8
S11325D01F93CF93DF930FB6F8940F9280916022EC
S11325E08150809360228091602281115DC080912E
S11325F06B22811130C05BC0D7011596ED91FC911F
S11326001697C681D781CE010C9659D98E010E5FDB
S11326101F4FC80154D98E8990916822981710F4DD
S11326208093682290E09C01220F331F220F331FF6
S1132630220F331F820F931FB80185579D4DEDD88C
S1132640E091B822F091B9229E898689981758F0B2
S1132650D092652208C00F2EFCE6EF2EF2E2FF2E88
S1132660F02DDD24D394F70180818111C5CF8091B1
S11326706622882391F080916622882371F0C1E05C
S1132680D0DE8111C09365228091662281508093AF
S11326906622809166228111F3CF80916522813078
S11326A029F4EFD981E003C080E001C080E00F90FD
S11326B00FBEDF91CF911F910F91FF90EF90DF90AC
S11326C00895CF93DF93EC01892B91F09ADE8091EA
S11326D0692290916A22C80FD91F8091B8229091E3
S11326E0B9220296ECD8CE0123DD6EDF811101C040
S11326F0C8D9DF91CF91089580916022882321F079
S113270081E0809365220895109265228091682269
S113271090E0FC01EE0FFF1FEE0FFF1FEE0FFF1FF7
S11327208E0F9F1FFC01E557FD4D8081811117C05D
S1132730809168228150809368228091682290E081
S1132740FC01EE0FFF1FEE0FFF1FEE0FFF1F8E0F9A
S11327509F1FFC01E557FD4D8081882349F380913B
S1132760682290E09C01220F331F220F331F220F97
S1132770331F280F391FD901A557BD4D1196ED916F
S1132780FC9112970280F381E02D1196ED93FC9356
S1132790129722573D4DE217F30729F42281338122
S11327A0FD0121833283FC01EE0FFF1FEE0FFF1F9B
S11327B0EE0FFF1F8E0F9F1FFC01E557FD4D01809B
S11327C0F281E02D868197818093B8229093B9227B
S11327D00895CF93DF93EB016091B8227091B922F1
S11327E0645F7F4F3BD88091B8229091B9220296C2
S11327F066D88091692290916A228C0F9D1F98DC83
S1132800DF91CF910895CF93DF93EB016091B822CC
S11328107091B922645F7F4F00D88091B822909163
S1132820B92202964CD88091692290916A228C0F29
S11328309D1F7EDCDF91CF9108950F931F93CF935B
S1132840DF93DC011596ED91FC911697C681D78133
S11328508E01045F1F4FC80132D88091602281111C
S11328601BC00A501109C8012AD88E899091682288
S1132870981710F48093682290E09C01220F331F74
S1132880220F331F220F331F820F931FB801855766
S11328909D4D0E940D0C05C0B8018CE692E20E9489
S11328A00D0CE091B822F091B9229E89868989178E
S11328B020F481E08093652201C080E0DF91CF9114
S11328C01F910F91089520916422FC01208320918F
S11328D0692230916A22218332830895CF93DF9352
S11328E0FC010FB6F8940F922091692230916A226C
S11328F0809164229081981729F081819281281710
S11329003907A8F4A181B281EB0148815981C90139
S11329108A1B9B0B8417950760F4CF01A21BB30B92
S11329204A0F5B1F48835983CEDF80E003C081E0F8
S113293001C081E00F900FBEDF91CF91089581E037
S113294080936522089580916722882331F08091D5
S11329506022882321F080E0089581E0089582E0D8
S11329600895FC0162837383808791874617570714
S113297090F0421B530B8485958548175907E0F462
S1132980BF016E5F7F4F8091BE229091BF220E9453
S11329902E0C80E008954217530718F4621773074A
S11329A068F4BF016E5F7F4F8091C0229091C12275
S11329B00E942E0C80E0089581E0089581E008953E
S11329C00FB6F8940F928091BC229091BD22892B6E
S11329D0E1F48BEC92E20E94FB0B82EC92E20E9407
S11329E0FB0B8BEC92E28093C0229093C12282EC89
S11329F092E28093BE229093BF2240E065E08AE099
S1132A00F2D98093BC229093BD220F900FBE0895FB
S1132A10AF92BF92CF92DF92EF92FF920F93D0DFEB
S1132A208091BC229091BD22892B89F0A12CB12CDC
S1132A30C12CD12CE12CF12C03E020E030E045E561
S1132A4050E062E170E286E196E1A7DB01C080E03C
S1132A500F91FF90EF90DF90CF90BF90AF900895CB
S1132A608F929F92BF92CF92DF92EF92FF920F9339
S1132A701F93CF93DF9361157105C9F06901B42EDB
S1132A807B014C0183E190E0AED8EC01892B89F005
S1132A9097DF88829982EC86FD86BE86CF86D88AA7
S1132AA0098B1A8BCE0102960E94090C02C0C0E069
S1132AB0D0E0CE01DF91CF911F910F91FF90EF9065
S1132AC0DF90CF90BF909F908F9008950F931F93A6
S1132AD0CF93DF93CDB7DEB72597CDBFDEBFE091AF
S1132AE0BC22F091BD22309751F1D90169834A8308
S1132AF05B838C839D836630D4F425DF823059F464
S1132B0020E0A801BE016F5F7F4F8091BC229091AD
S1132B10BD2292D915C020E040E050E0BE016F5FB5
S1132B207F4F8091BC229091BD2286D909C020E0BC
S1132B30AD01BE016F5F7F4FCF010BDA01C080E0B2
S1132B402596CDBFDEBFDF91CF911F910F910895E0
S1132B50AF92BF92CF92DF92EF92FF920F931F93A7
S1132B60CF93DF936C0153DC7C018091BA22909166
S1132B70BB22E816F90608F047C02FC00580F6818D
S1132B80E02DA080B180C681D7818E010E5F1F4FDA
S1132B90C8010E945F0CE989FA89CE0119958E85D6
S1132BA08130D9F48C859D858A0D9B1DA816B906A4
S1132BB060F48A839B83C887D987B8018091C02237
S1132BC09091C1220E942E0C08C000E010E020E089
S1132BD030E0A50160E0CE0179DFE091C022F09100
S1132BE0C12280818111CACF8091BE229091BF22DF
S1132BF08093C0229093C122E093BE22F093BF221F
S1132C0081E0F601808302C0F6011082E092BA22CC
S1132C10F092BB22C701DF91CF911F910F91FF90DA
S1132C20EF90DF90CF90BF90AF900895CF93DF9354
S1132C3000D000D0CDB7DEB7CE0101965C01E82EFE
S1132C40FB2CE091C022F091C1228081882309F4F9
S1132C50B6C00580F681E02DC080D180D2DBC501ED
S1132C6077DF8C018981811142C00C151D0580F12B
S1132C70ABDCE091C022F091C1220580F681E02D09
S1132C8086809780C40102960E945F0CD4011E9630
S1132C908C911E978130A1F41C966D917C911D97A7
S1132CA06C0D7D1D9601A801C4015BDE813041F4E9
S1132CB000E010E020E030E0A60160E0C40106DF9F
S1132CC0D4015196ED91FC915297C40119956AC0B3
S1132CD040E0B601601B710B8091BC229091BD2233
S1132CE005DA72DC81115EC00E94410D5BC06CDCB0
S1132CF059C0898188230CF455C0CC80DD80F6014D
S1132D0082859385892B21F0C60102960E945F0C6F
S1132D10CE0106961DDFAC018981082E000C990BAB
S1132D20AA0BBB0B8A30910508F03CC0FC01882734
S1132D30E250FF4F8F4F9EC52A813B81D6011C96DE
S1132D406D917C911D97620F731FC6010ADE81305D
S1132D5049F5D6015196ED91FC915297C60119950A
S1132D60F60186858130F1F44A815B8184859585FD
S1132D70480F591F00E010E020E030E060E0C60199
S1132D80A5DE10C06A817B81D6011C966D937C936D
S1132D901D97640F751F9A01C601E3DD03C0C601C8
S1132DA00E94000E20E040E050E06E2D7F2D8091C7
S1132DB0BC229091BD2203D981119BCF42CF21DB4C
S1132DC0C501C6DE8C018981811191CFE091BE22BB
S1132DD0F091BF2241E08081811140E0C12CD12CCF
S1132DE078CFCF93DF93FC0120E030E0C62FD0E012
S1132DF0DE01022E02C0B595A7950A94E2F7A0FD64
S1132E00508B2F5F3F4F31962830310589F740FFB3
S1132E100AC041FF03C0FC01658302C0FC01668354
S1132E20FC01618302C0FC016283DF91CF910895AC
S1132E3043E050E061E080EE97E0D3DF43E050E010
S1132E4062E080EE97E0CDDF43E050E060E180E6B1
S1132E5096E0C7DF41E050E460E280E696E0C1DF3F
S1132E6040E05BE160E280E896E0BBDF40E05BE1EC
S1132E7062E080EA96E0B5DF40E05BE164E080EA8E
S1132E8096E0AFDF43E050E062E080E696E0A9DF41
S1132E9043E050E068E080E696E0A3DF43E050E0E2
S1132EA068E080EA96E09DDF43E050E061E080E680
S1132EB096E097DF43E050E068E080E096E091DF41
S1132EC041E050E060E180E896E08BDF43E050E0D1
S1132ED062E080E696E085DF43E050E068E080E66B
S1132EE096E07FDF40E050E064E080E696E079DF42
S1132EF043E050E060E180EA96E073DF40E050E0B8
S1132F0061E080E096E06DDF40E050E064E080E066
S1132F1096E067DF40E050E062E080E296E061DF47
S1132F2043E050E068E080E496E05BDF40E050E09E
S1132F3064E080E496E055DF43E050E068E080E63A
S1132F4096E04FDF40E050E064E080E696E049DF41
S1132F5043E050E068E080E896E043DF40E050E082
S1132F6064E080E896E03DCF089580919D239091A0
S1132F709E23A0919F23B091A0230196A11DB11D72
S1132F8080939D2390939E23A0939F23B093A0238B
S1132F900895C0EED7E011E0012F0E8382E390E0A4
S1132FA090DB1D8382E390E08CDBF7CFC0E0D2E0BE
S1132FB011E0CE010E9496079FB7F894888184603F
S1132FC088839FBF8E8180FFFDCF1E836CA17DA16E
S1132FD0062E000C770B880B990B3BD320E030E0D6
S1132FE048EC52E4C2D320E030EC4FE754E496D2EC
S1132FF09B01AC0160E070E088EC92E42AD2F6D246
S11330006093A1237093A22385E090E05ADBD1CF93
S1133010CF93DF931F92CDB7DEB700E012E09FB7E6
S1133020F894F8018081886080839FBF0E947302B6
S11330308823E1F30E948B0289838981082E000C86
S1133040990B8093A3239093A42385E090E039DB2C
S1133050E6CFC0E0D2E00F2EF4E1CF2ED12CE12C4C
S1133060F12CF02D9FB7F8948881846088839FBFEA
S11330700E947F028823E1F30E94BB02092E000C08
S1133080AA0BBB0B4091A8235091A9236091AA23BA
S11330907091AB238C019D01040F151F261F371F50
S11330A0C901B8010093A8231093A9232093AA234C
S11330B03093AB232091A723243120F42F5F209356
S11330C0A72311C01092A723A7019601B1D320937F
S11330D0A5233093A6231092A8231092A92310921B
S11330E0AA231092AB2385E090E0EBDABBCF80E11A
S11330F0809385060F2EFAE1AF2EF0E2BF2EF02D5D
S113310019ECC4EDD2E20F2EFBE2CF2EF0E2DF2E5B
S1133110F02D0F2EFBE3EF2EF0E2FF2EF02D809129
S1133120A6238F938091A5238F93BF92AF921F9272
S11331301F93DF93CF93D0D426E030E240E060E0E9
S1133140CE010E94BC068091A4238F938091A32377
S11331508F93DF92CF921F921F93DF93CF93BCD4B0
S113316026E030E24AE060E0CE010E94BC06809195
S1133170A2238F938091A1238F93FF92EF921F92AA
S11331801F93DF93CF93A8D426E030E244E160E0BC
S1133190CE010E94BC0682E090E093DA8DB79EB720
S11331A048968DBF9EBFBBCFE0E4F6E0808181608E
S11331B08083E0E0F8E085E0808386E1818388EE27
S11331C093E086A397A387E791E080A791A708954A
S11331D0EBDFE0EAF6E0C0E0D8E06EE571E0A0E6FF
S11331E0B6E010E290E141E050E022E830E0808572
S11331F081FD0CC0808582FF09C028A739A71696D7
S11332009C93169715961C931597F1CF808582FD94
S11332100CC0808581FF09C048A759A716961C9346
S1133220169715969C931597E2CF808581FFDFCF83
S1133230808582FFDCCF68A779A715961C93159724
S113324015969C931597D3CF8F929F92AF92BF926E
S1133250CF92DF92EF92FF920F931F93CF93DF935E
S1133260CDB7DEB72B97CDBFDEBFE2DD87E080931D
S1133270A200BE016F5F7F4F80E092E00E948D0943
S1133280AE01485F5F4F61E080E092E00E94E9098F
S11332909A818B818F7880618B83892F817E8A8349
S11332A01C8202E00D8311E018871986BE016F5F4E
S11332B07F4F80E092E00E943D09AE01485F5F4F7E
S11332C061E080E092E00E94B009BE016F5F7F4F31
S11332D080E092E00E948D09AE01485F5F4F62E09A
S11332E080E092E00E94E9099A818B818F78806165
S11332F08B83892F817E8A831C820D83188788E0C3
S11333008987BE016F5F7F4F80E092E00E943D0994
S1133310AE01485F5F4F62E080E092E00E94B00936
S1133320BE016F5F7F4F80E092E00E948D09AE0185
S1133330485F5F4F64E080E092E00E94E9099A816F
S11333408B818F7880618B83892F817E8A831C8215
S11333500D83188780E18987BE016F5F7F4F80E00E
S113336092E00E943D09AE01485F5F4F64E080E057
S113337092E00E94B0090E94480505EB17E120E0A5
S113338030E041E061E070E08FE490E269DB4C0101
S1133390A12CB12CC12CD12CE12CF12C01E020E08A
S11333A030E044EF51E061E170E289EC97E10E9482
S11333B0CD1020E030E044EF51E061E170E287E7B6
S11333C098E10E94CD1020E030E044EF51E061E14B
S11333D070E289E298E10E94CD1020E030E044EFF1
S11333E051E061E170E288E098E10E94CD1020E0B4
S11333F030E044EF51E061E170E288EE98E10E9430
S1133400CD1020E030E044EF51E061E170E286ED60
S113341097E10E94CD100E94071200E010E020E026
S113342030E0AC0161E0C40151DB0E94CE1180E0C8
S113343090E02B96CDBFDEBFDF91CF911F910F910E
S1133440FF90EF90DF90CF90BF90AF909F908F90C0
S113345008955058BB27AA270ED04DC13ED130F055
S113346043D120F031F49F3F11F41EF433C10EF424
S1133470E095E7FB29C1E92F4FD180F3BA17620722
S113348073078407950718F071F49EF567C10EF46D
S1133490E0950B2EBA2FA02D0B01B90190010C0160
S11334A0CA01A0011124FF27591B99F0593F50F478
S11334B0503E68F11A16F040A22F232F342F4427D0
S11334C0585FF3CF469537952795A795F0405395C8
S11334D0C9F77EF41F16BA0B620B730B840BBAF098
S11334E09150A1F0FF0FBB1F661F771F881FC2F703
S11334F00EC0BA0F621F731F841F48F48795779517
S11335006795B795F7959E3F08F0B3CF9395880FCD
S113351008F09927EE0F9795879508950CD0EBC086
S1133520E3D040F0DAD030F021F45F3F19F0CCC0A2
S1133530511115C1CFC0F0D098F39923C9F3552385
S1133540B1F3951B550BBB27AA2762177307840792
S113355038F09F5F5F4F220F331F441FAA1FA9F348
S113356033D00E2E3AF0E0E830D091505040E6953A
S1133570001CCAF729D0FE2F27D0660F771F881F9B
S1133580BB1F261737074807AB07B0E809F0BB0B8A
S1133590802DBF01FF2793585F4F2AF09E3F5105AE
S11335A068F092C0DCC05F3FECF3983EDCF3869594
S11335B077956795B795F7959F5FC9F7880F911D24
S11335C09695879597F90895E1E0660F771F881F10
S11335D0BB1F621773078407BA0720F0621B730BC3
S11335E0840BBA0BEE1F88F7E095089504D0689415
S11335F0B111B5C0089598D088F09F5790F0B92FB5
S11336009927B751A0F0D1F0660F771F881F991F33
S11336101AF0BA95C9F712C0B13081F09FD0B1E069
S113362008959CC0672F782F8827B85F39F0B93F79
S1133630CCF3869577956795B395D9F73EF4909535
S11336408095709561957F4F8F4F9F4F0895E894B3
S113365009C097FB3EF490958095709561957F4FD6
S11336608F4F9F4F9923A9F0F92F96E9BB27939584
S1133670F695879577956795B795F111F8CFFAF494
S1133680BB0F11F460FF1BC06F5F7F4F8F4F9F4FC5
S113369016C0882311F096E911C0772321F09EE823
S11336A0872F762F05C0662371F096E8862F70E089
S11336B060E02AF09A95660F771F881FDAF7880F63
S11336C09695879597F9089597F99F6780E870E034
S11336D060E008959FEF80EC089500240A94161684
S11336E0170618060906089500240A9412161306EC
S11336F0140605060895092E0394000C11F488237A
S113370052F0BB0F40F4BF2B11F460FF04C06F5F95
S11337107F4F8F4F9F4F089557FD9058440F551F6B
S113372059F05F3F71F04795880F97FB991F61F03F
S11337309F3F79F087950895121613061406551FB6
S1133740F2CF4695F1DF08C0161617061806991F22
S1133750F1CF86957105610508940895E894BB2717
S113376066277727CB0197F908950BD0C4CFB5DF2F
S113377028F0BADF18F0952309F0A6CFABCF1124B7
S1133780EECFCADFA0F3959FD1F3950F50E0551FFC
S1133790629FF001729FBB27F00DB11D639FAA27A2
S11337A0F00DB11DAA1F649F6627B00DA11D661FF1
S11337B0829F2227B00DA11D621F739FB00DA11D12
S11337C0621F839FA00D611D221F749F3327A00DCC
S11337D0611D231F849F600D211D822F762F6A2F68
S11337E011249F5750408AF0E1F088234AF0EE0FED
S11337F0FF1FBB1F661F771F881F91505040A9F7FA
S11338009E3F510570F060CFAACF5F3FECF3983E26
S1133810DCF3869577956795B795F795E7959F5F60
S1133820C1F7FE2B880F911D9695879597F90895FA
S1133830A1E21A2EAA1BBB1BFD010DC0AA1FBB1FB0
S1133840EE1FFF1FA217B307E407F50720F0A21B22
S1133850B30BE40BF50B661F771F881F991F1A948F
S113386069F760957095809590959B01AC01BD01B9
S1133870CF010895EE0FFF1F881F8BBF0790F691AD
S1133880E02D19940F931F93CF93DF93823091050A
S113389010F482E090E0E091B823F091B92320E0A5
S11338A030E0A0E0B0E0309719F14081518102810D
S11338B0138148175907C8F08417950769F41097BE
S11338C031F012960C93129713961C9327C0009311
S11338D0B8231093B92322C02115310519F04217DA
S11338E0530718F49A01BD01EF01DF01F801DBCFA2
S11338F021153105F9F0281B390B2430310580F4EA
S11339008A819B816115710521F0FB018283938378
S113391004C08093B8239093B923FE01329644C027
S1133920FE01E20FF31F8193919322503109288302
S113393039833AC02091B6233091B723232B41F425
S113394020910220309103202093B6233093B72393
S113395020910020309101202115310541F42DB72B
S11339603EB74091042050910520241B350BE09173
S1133970B623F091B723E217F307A0F42E1B3F0BF5
S11339802817390778F0AC014E5F5F4F24173507CD
S113399048F04E0F5F1F4093B6235093B723819393
S11339A0919302C0E0E0F0E0CF01DF91CF911F914D
S11339B00F910895CF93DF93009709F481C0FC0120
S11339C0329712821382A091B823B091B923109731
S11339D081F420813181820F931F2091B62330918D
S11339E0B7232817390751F5E093B623F093B7238B
S11339F067C0ED0120E030E0CE17DF0740F44A81D4
S1133A005B819E0141155105F1F0EA01F5CFC283B6
S1133A10D38340815181840F951FC817D90759F466
S1133A2088819981840F951F0296808391838A816E
S1133A309B81828393832115310529F4E093B82374
S1133A40F093B9233DC0E901EA83FB83499159917D
S1133A50C40FD51FEC17FD0761F480819181840F99
S1133A60951F0296E90188839983828193818A83D1
S1133A709B83E0E0F0E012968D919C911397009760
S1133A8019F0FD01DC01F7CF8D919C9111979D01F7
S1133A902E5F3F4F820F931F2091B6233091B7239F
S1133AA02817390769F4309729F41092B823109233
S1133AB0B92302C012821382A093B623B093B72312
S1133AC0DF91CF910895FB01DC0102C001900D92BA
S1133AD041505040D8F708950F931F93CF93DF932D
S1133AE0CDB7DEB72E97CDBFDEBF0E891F89888D77
S1133AF0998D26E02C8309831A8397FF02C080E006
S1133B0090E801978D839E83AE01445E5F4F6A8D7A
S1133B107B8DCE01019616D04D815E8157FD0AC082
S1133B202F813885421753070CF49A01F801E20FEC
S1133B30F31F10822E96CDBFDEBFDF91CF911F9170
S1133B400F9108952F923F924F925F926F927F92BE
S1133B508F929F92AF92BF92CF92DF92EF92FF9299
S1133B600F931F93CF93DF93CDB7DEB72B97CDBFC2
S1133B70DEBF6C017B018A01FC01168217828381FE
S1133B8081FFBFC1CE0101963C01F6019381F7018B
S1133B9093FD859193FF81917F01882309F4ADC141
S1133BA0853239F493FD859193FF81917F018532AC
S1133BB021F4B60190E0D3D1E8CF912C212C312C03
S1133BC0FFE1F315D8F08B3279F038F4803279F0D4
S1133BD08332A1F4232D20611DC08D3261F0803326
S1133BE069F4232D216016C0832D8260382EE32DC5
S1133BF0E4603E2E2AC0F32DF8601DC037FC2DC0B2
S1133C0020ED280F2A3040F08E32B9F436FC75C10D
S1133C10232D2064322E19C036FE06C08AE0989EF9
S1133C20200D1124922E11C0EAE02E9E200D1124A5
S1133C30222EF32DF0623F2E08C08C3621F4832D02
S1133C408068382E02C0883641F4F70193FD8591CF
S1133C5093FF81917F018111B3CF982F9F7D95545C
S1133C60933028F40C5F1F4F9FE399830DC0833674
S1133C7031F0833771F0833509F055C020C0F80165
S1133C80808189830E5F1F4F88248394912C530174
S1133C9012C02801F2E04F0E511CF801A080B1803F
S1133CA036FE03C0692D70E002C06FEF7FEFC501DF
S1133CB04BD14C018201F32DFF773F2E15C0280113
S1133CC022E0420E511CF801A080B18036FE03C0F0
S1133CD0692D70E002C06FEF7FEFC5012AD14C015E
S1133CE0F32DF0683F2E820133FC19C0822D90E041
S1133CF088169906A0F4B60180E290E030D12A94A7
S1133D00F5CFF50137FC859137FE81915F01B6014E
S1133D1090E025D121102A9421E0821A910881147F
S1133D20910479F7E1C0843611F0893639F5F80148
S1133D3037FE07C060817181828193810C5F1F4FC0
S1133D4008C060817181072E000C880B990B0E5FEF
S1133D501F4FF32DFF763F2E97FF09C09095809556
S1133D60709561957F4F8F4F9F4FF0683F2E2AE0EB
S1133D7030E0A30130D1882E861844C0853731F451
S1133D80232D2F7EB22E2AE030E025C0932D997F7B
S1133D90B92E8F36C1F018F4883579F0AEC080376B
S1133DA019F0883721F0A9C0E92FE061BE2EB4FED6
S1133DB00DC0FB2DF460BF2E09C034FE0AC0292FAC
S1133DC02660B22E06C028E030E005C020E130E0D5
S1133DD002C020E132E0F801B7FE07C060817181C2
S1133DE0828193810C5F1F4F06C06081718180E0E6
S1133DF090E00E5F1F4FA301EED0882E8618FB2D96
S1133E00FF773F2E36FE0DC0232D2E7FA22E891460
S1133E1058F434FE0BC032FC09C0832D8E7EA82ECC
S1133E2005C0B82CA32C03C0B82C01C0B92CA4FE27
S1133E300FC0FE01E80DF11D8081803321F49A2D1D
S1133E40997EA92E09C0A2FE06C0B394B39404C0FF
S1133E508A2D867809F0B394A3FC10C0A0FE06C096
S1133E60B21480F4280C922C9B180DC0B21458F490
S1133E70B60180E290E073D0B394F8CFB21418F492
S1133E802B1802C0982C212CA4FE0FC0B60180E38D
S1133E9090E065D0A2FE16C0A1FC03C088E790E0C4
S1133EA002C088E590E0B6010CC08A2D867851F0F6
S1133EB0A1FE02C08BE201C080E2A7FC8DE2B60144
S1133EC090E04DD0891430F4B60180E390E047D0FF
S1133ED09A94F8CF8A94F301E80DF11D8081B6011C
S1133EE090E03DD08110F6CF222009F44ECEB601E9
S1133EF080E290E034D02A94F7CFF601868197814E
S1133F0002C08FEF9FEF2B96CDBFDEBFDF91CF9125
S1133F101F910F91FF90EF90DF90CF90BF90AF90E3
S1133F209F908F907F906F905F904F903F902F90D5
S1133F300895FC010590615070400110D8F78095F8
S1133F4090958E0F9F1F0895FC0161507040019061
S1133F500110D8F7809590958E0F9F1F08950F93A9
S1133F601F93CF93DF93FB01238121FD03C08FEFC8
S1133F709FEF2CC022FF16C04681578124813581D2
S1133F804217530744F4A081B1819D012F5F3F4F35
S1133F90208331838C93268137812F5F3F4F268383
S1133FA0378314C08B01EC01FB010084F185E02D03
S1133FB01995892BE1F6D80116968D919C91179746
S1133FC0019616968D939C931797CE01DF91CF910E
S1133FD01F910F910895FA01AA27283051F1203139
S1133FE081F1E8946F936E7F6E5F7F4F8F4F9F4F89
S1133FF0AF4FB1E03ED0B4E03CD0670F781F891FCB
S11340009A1FA11D680F791F8A1F911DA11D6A0F98
S1134010711D811D911DA11D20D009F468943F914B
S11340202AE0269F11243019305D3193DEF6CF014A
S11340300895462F4770405D4193B3E00FD0C9F710
S1134040F6CF462F4F70405D4A3318F0495D31FD7D
S11340504052419302D0A9F7EACFB4E0A6959795D0
S1134060879577956795BA95C9F7009761057105A6
S113407008959B01AC010A2E0694579547953795F0
S11340802795BA95C9F7620F731F841F951FA01D4A
S10940900895F894FFCF2F
S11340960000BA2320000010020607207D49444C84
S11340A64500546D72205376630052656164204C5A
S11340B669676874203A2025336400526561642078
S11340C654656D70203A202533640052656164207E
S11340D64D6F697374757265203A202533640074D4
S10940E650696E67000042
S9030000FC
